S016000050726F6A6563745F5375646F6B752E737265635D
S11300000C942A000C9434000C9434000C943400A6
S11300100C9434000C9434000C9434000C9434008C
S11300200C9434000C9434000C9434000C947A0135
S11300300C9434000C9434000C9434000C9434006C
S11300400C9434000C9434000C9434000C9434005C
S11300500C94340011241FBECFE5D4E0DEBFCDBF25
S11300600E9464000C941E040C94000088E98AB970
S113007086E880BD10BC80E489B98FEF84BB789496
S113008030E016C0832F90E0FC01EE0FFF1FEE0F4F
S1130090FF1FEE0FFF1FE80FF91FE059FF4FE20F9C
S11300A0F11D10822F5F01C020E0293058F33F5F1B
S11300B03930D0F31092690081E08093600080931E
S11300C061008FEF85BB08950E943600FFCF5F9BD0
S11300D0FECF8CB108955D9BFECFFC0180818CB96D
S11300E00895FC018081823388F0863438F08035AD
S11300F010F015BA089580E885BB08958C3318F084
S113010080EC85BB089580EE85BB08958E3140F068
S1130110883218F080EF85BB089588EF85BB089579
S1130120843118F08CEF85BB08958EEF85BB08955C
S1130130AF92BF92CF92DF92FF920F931F93CF9310
S1130140DF9310926A0030E01CC0832F90E0FC0122
S1130150EE0FFF1FEE0FFF1FEE0FFF1FE80FF91F3B
S1130160E059FF4FE20FF11D8081882331F02F5FAA
S113017001C020E0293048F303C0C22FD32F39E057
S11301803F5F3930B0F33A3009F0A7C08BEAD89F0B
S1130190F12C11249F2D9695F92EFF0CF90EC89F72
S11301A0812D11248695082F000F080F11E090C0AF
S11301B0432F50E0FA01EE0FFF1FEE0FFF1FEE0F6B
S11301C0FF1FE40FF51FE059FF4FEC0FF11D808175
S11301D01817B1F18D2F90E0BC01660F771F660FE1
S11301E0771F660F771F860F971F80599F4FFC015B
S11301F0E40FF51F8081181719F12BEA329F212D86
S113020011242695822F880F820F432F481B8F2D90
S113021090E0840F911D402F50E0420F511DBC010E
S1130220660F771F660F771F660F771F860F971F5E
S113023080599F4FFC01E40FF51F8081181304C0FF
S113024081E080936A0006C03F5F01C030E039302E
S113025008F4AECF80916A00811137C0CD2ED12C25
S1130260AC2EB12CF601EE0FFF1FEE0FFF1FEE0FA9
S1130270FF1FEC0DFD1DE059FF4FEA0DFB1D108320
S1130280E9E6F0E080818F5F808389E690E00E9458
S113029071000E949800811122C0C601880F991F25
S11302A0880F991F880F991F8C0D9D1D80599F4F92
S11302B0FC01EA0DFB1D1082E9E6F0E0808181502B
S11302C0808389E690E00E94710010926A001F5FAB
S11302D01A3008F4BBCF80E003C081E001C081E0A4
S11302E0DF91CF911F910F91FF90DF90CF90BF903E
S11302F0AF9008951F920F920FB60F921124EF92B0
S1130300FF920F931F932F933F934F935F936F939A
S11303107F938F939F93AF93BF93CF93DF93EF9389
S1130320FF931092620002E610E0F801C081D0E071
S1130330CD59DF4F0E9467008883F8018081E82F40
S1130340F0E0ED59FF4F90819A3021F08F5F809358
S11303506200E9CF80916300813449F59091640093
S1130360943529F5809165008D3009F032C2809171
S113037066008A3009F02DC2C2E6D0E08FE488839B
S113038082E690E00E946B008BE4888382E690E032
S11303900E946B008DE0888382E690E00E946B00EF
S11303A08AE0888382E690E00E946B0012C2833464
S11303B009F04BC0809164008D3009F00AC280912D
S11303C065008A3009F005C2C2E6D0E08FE4888374
S11303D082E690E00E946B008BE4888382E690E0E2
S11303E00E946B008DE0888382E690E00E946B009F
S11303F08AE0888382E690E00E946B0020E030E08F
S113040017C0F901EE0FFF1FEE0FFF1FEE0FFF1FC6
S1130410E20FF31FE059FF4FE80FF91F1082019616
S113042002C080E090E0893091055CF32F5F3F4F7C
S113043029303105B4F3109269008FEF85BB81E058
S11304408093600080936100C4C18E3409F054C06D
S1130450809167008D3009F0BCC1809168008A30BA
S113046009F0B7C1E4E6F0E080818F708083E5E6AF
S1130470F0E020812F702083E6E6F0E040814F70A9
S1130480408390E0019730E021503109BC01660FB0
S1130490771F660F771F660F771F860F971F805988
S11304A09F4FDC01A20FB31F4C938081882349F036
S11304B0E9E6F0E080818F5F808389E690E00E9426
S11304C07100C2E6D0E08FE4888382E690E00E9467
S11304D06B008BE4888382E690E00E946B008DE0E1
S11304E0888382E690E00E946B008AE0888382E63B
S11304F090E00E946B006DC1803509F040C080918E
S113050064008D3009F065C1809165008A3009F07E
S113051060C1C2E6D0E08FE4888382E690E00E9466
S11305206B008BE4888382E690E00E946B008DE090
S1130530888382E690E00E946B008AE0888382E6EA
S113054090E00E946B000E949800882391F084E45C
S1130550888382E690E00E946B008DE0888382E6C7
S113056090E00E946B008AE0888382E690E00E941B
S11305706B0081E080936000809361002AC1843421
S113058009F053C0809166008D3009F022C180913A
S113059067008A3009F01DC1C2E6D0E08EE488838A
S11305A082E690E00E946B0003E610E0F80181818E
S11305B0888382E690E00E946B00F8018281888340
S11305C082E690E00E946B00E4E6F0E080818F70A8
S11305D08083E5E6F0E020812F70208390E001978E
S11305E030E021503109AC01440F551F440F551F11
S11305F0440F551F840F951F80599F4FFC01E20F34
S1130600F31F8081805D888382E690E00E946B0006
S11306108DE0888382E690E00E946B008AE0888304
S113062082E690E00E946B00D4C0833509F054C088
S1130630809164008D3009F0CCC0809165008A30CF
S113064009F0C7C0C2E6D0E08EE4888382E690E079
S11306500E946B000F2EF0E6EF2EF12CF02DF70127
S11306608081805D888382E690E00E946B0001E6D1
S113067010E0F8018081805D888382E690E00E942A
S11306806B00F701808190E00197F801208130E050
S113069021503109AC01440F551F440F551F440F1D
S11306A0551F840F951F80599F4FFC01E20FF31FC4
S11306B08081805D888382E690E00E946B008DE0FB
S11306C0888382E690E00E946B008AE0888382E659
S11306D090E00E946B007DC0843509F07AC080915F
S11306E064008D3009F075C0809165008A3009F08E
S11306F070C001E610E0F80180818F5F8083C2E65C
S1130700D0E08EE4888382E690E00E946B000F2E96
S1130710F0E6EF2EF12CF02DF7018081805D8883C7
S113072082E690E00E946B00F8018081805D8883FE
S113073082E690E00E946B00F701808190E00197CF
S1130740F801208130E021503109AC01440F551FDC
S1130750440F551F440F551F840F951F80599F4FF9
S1130760FC01E20FF31F8081805D888382E690E0C4
S11307700E946B008DE0888382E690E00E946B000B
S11307808AE0888382E690E00E946B00F801808111
S11307908930F9F4809160008930A1F484E488837D
S11307A082E690E00E946B008DE0888382E690E010
S11307B00E946B008AE0888382E690E00E946B00CE
S11307C010926000E0E6F0E080818F5F80831092F9
S11307D06100809163008234D1F4C2E6D0E08FE4FA
S11307E0888382E690E00E946B008BE4888382E633
S11307F090E00E946B008DE0888382E690E00E9486
S11308006B008AE0888382E690E00E946B00FF918F
S1130810EF91DF91CF91BF91AF919F918F917F9194
S11308206F915F914F913F912F911F910F91FF9085
S1130830EF900F900FBE0F901F901895F894FFCF74
S9030000FC
